:10075900EF1FAC0670011E4C600B007D027CC7DCEC
:05076900FEDDFC80EB49
:01076E002268
:06079900C2A58F80D2A76B
:0B079F000000007F0B7EBEDEFEDFFCD2
:0107AA00222C
:0A07B600C2A6120799C2A702079F0E
:10071E00CFCDCFCECCCE12015A7C007D0A12015A1B
:04072E00ED2430FF87
:0A073200D2A6120799C2A702079F82
:10076F00AE07BE0104ED148006BE0209ED243F441E
:06077F0080FF1207B62204
:100785007F381207B67F0C1207B67F061207B67FB1
:04079500010207B6A0
:0A07C000AC0312076FAF040207320A
:0606FB008B218A228923F5
:1007010012076FE4FDAB21AA22A9238D8275830014
:0C0711001200F9FF60061207320D80E9AB
:01071D0022B9
:0C069E007F0AEA24FFFDE434FFFC7E002C
:0806AA008E428F438C448D4504
:1006B2007F017E00E4FBEBC39545E5446480F8745A
:0E06C2008098500AAC42AD431201480B80E80C
:0106D0002207
:04073C008A358B3639
:1007400012076FAA37EAD39400400D12069EAC350B
:08075000AD3612071E1A80ED00
:01075800227E
:1005F30012076FC3EA64809480400B7F2B1207328B
:100603008A318B32800E7F2D120732C3E49BF53281
:10061300E49AF531AA30EAD39400400D12069EAC59
:0906230031AD3212071E1A80ED00
:01062C0022AB
:04062D008A3A8B3B3F
:1006310012076FAA3CEAD3940040297F101206A04A
:10064100AC3AAD3BCFCDCFCECCCE12015AEF540F49
:10065100FEC3940AEE5004243080022437FF1207AF
:04066100321A80D1F8
:010665002272
:040666008A3F8B40FC
:10066A0012076FAA41EAD394004028EA24FFFDE466
:10067A0034FFFC7F027E001206AAAC3FAD40CFCD0C
:10068A00CFCECCCE12015AEF54012430FF120732DA
:03069A001A80D2F1
:01069D00223A
:10024700E4F5137590FFC2932097137F14FE1207EE
:10025700593097FD7F147E001207597513012096B8
:10026700147F147E001207593096FD7F147E00120A
:1002770007597513052095147F147E00120759300E
:1002870095FD7F147E001207597513092094147F7A
:10029700147E001207593094FD7F147E001207590F
:1002A70075130D7590FFC2922097147F147E00126C
:1002B70007593097FD7F147E0012075975130220E6
:1002C70096147F147E001207593096FD7F147E0026
:1002D7001207597513062095147F147E00120759CB
:1002E7003095FD7F147E0012075975130A20941468
:1002F7007F147E001207593094FD7F147E00120789
:100307005975130E7590FFC2912097147F147E00C4
:100317001207593097FD7F147E0012075975130392
:100327002096147F147E001207593096FD7F147EA5
:10033700001207597513072095147F147E001207C2
:10034700593095FD7F147E0012075975130B2094C1
:10035700147F147E001207593094FD7F147E00121B
:10036700075975130F7590FFC2902097147F147E5D
:10037700001207593097FD7F147E00120759751335
:10038700042096147F147E001207593096FD7F14BF
:100397007E001207597513082095147F147E0012EA
:1003A70007593095FD7F147E0012075975130C20ED
:1003B70094147F147E001207593094FD7F147E0039
:0803C700120759751310AF1362
:0103CF00220B
:1006D1004552524F52212000436F7272656374007C
:1006E100202020202020200050617373776F7264D6
:0A06F1003A005F5F5F5F5F5F5F002C
:0A07AB0008243733353536303800A6
:060598008B1C8A1D891E68
:10059E00751F00752001E4FFFEAB1CAA1DA91E8F5E
:1005AE00828E831200F9FD74242FF8E66D6005E447
:1005BE00F51FF5200FBF00010EEF64074E70DAE550
:1005CE0020451F7BFF70127A0679D17D017F0212C2
:1005DE0006FB7FE87E030207597A0679D97D0A7FEA
:0405EE00021206FBF4
:0105F20022E6
:0803D0008F138B148A158916A6
:1003D800E4F51AF51BE513D3940A50381201AFC39C
:1003E8009407E5F064809480502AE51375F00A8438
:1003F800E5F02430FF1201AFAB17AA18A919F5824E
:1004080085F083EF120126AB14AA15A916E475F03E
:10041800011201DAE513B40B38AB14AA15A91612A8
:1004280001AFFFAEF0D39400EE6480948040227454
:10043800FF2FF58274FF3EF583AB17AA18A919742C
:100448005F120126AB14AA15A91674FFF5F0120164
:10045800DAE513640C70417BFF7A0679E17D0A7F47
:10046800021206FBC3E51B9407E51A6480948050CA
:100478001BAB17AA18A919851B82851A83745F12EA
:100488000126051BE51B7002051A80D8AB14AA15B6
:10049800A916E4F5F0120212E513B41009AB17AA75
:0604A80018A919120598C5
:0104AE00222B
:10053B00E4F508F509780B7C00FD7BFF7A0679F36F
:10054B00FE7F081200D31207857BFF7A0679E97DBF
:10055B00017F011206FB7B007A00790B7D017F0284
:10056B001206FB1202478F0AE50A60F77517007532
:10057B00180075190B7B007A0079081203D07B00E9
:0D058B007A00790B7D017F021206FB80D6FD
:030000000204AF48
:0C04AF00787FE4F6D8FD7581450204F664
:10000300E709F608DFFA8046E709F208DFFA803EDF
:1000130088828C83E709F0A3DFFA8032E309F608CC
:10002300DFFA8078E309F208DFFA807088828C8334
:10003300E309F0A3DFFA806489828A83E0A3F608E8
:10004300DFFA805889828A83E0A3F208DFFA804CC2
:1000530080D280FA80C680D4806980F28033801099
:1000630080A680EA809A80A880DA80E280CA803302
:1000730089828A83ECFAE493A3C8C582C8CCC5837A
:10008300CCF0A3C8C582C8CCC583CCDFE9DEE7804A
:100093000D89828A83E493A3F608DFF9ECFAA9F0C9
:1000A300EDFB2289828A83ECFAE0A3C8C582C8CC1F
:1000B300C583CCF0A3C8C582C8CCC583CCDFEADE38
:1000C300E880DB89828A83E493A3F208DFF980CC9A
:1000D30088F0EF60010E4E60C388F0ED2402B40493
:1000E3000050B9F582EB2402B4040050AF2323453A
:0600F3008223900053730C
:1000F900BB010CE58229F582E5833AF583E02250BC
:1001090006E92582F8E622BBFE06E92582F8E22205
:0D011900E58229F582E5833AF583E493221F
:10012600F8BB010DE58229F582E5833AF583E8F00F
:10013600225006E92582C8F622BBFE05E92582C8BB
:02014600F222A3
:10014800EF8DF0A4A8F0CF8CF0A428CE8DF0A42ECB
:02015800FE2285
:10015A00BC000BBE0029EF8DF084FFADF022E4CC89
:10016A00F875F008EF2FFFEE33FEEC33FCEE9DEC52
:10017A00984005FCEE9DFE0FD5F0E9E4CEFD22ED98
:10018A00F8F5F0EE8420D21CFEADF075F008EF2FE2
:10019A00FFED33FD4007985006D5F0F222C398FDD3
:0501AA000FD5F0EA2270
:1001AF00BB010A89828A83E0F5F0A3E0225006871B
:1001BF00F009E71922BBFE07E3F5F009E3192289DD
:0B01CF00828A83E493F5F07401932210
:1001DA00BB010789828A83020231500B09C5F027C5
:1001EA00F7C5F01937F722BBFE0D09F8E325F0F33E
:1001FA00C5F019E338F322F889828A8374019325BA
:08020A00F0C5F0F8E49338227E
:10021200BB010A89828A83F0E5F0A3F0225006F737
:0F02220009A7F01922BBFE06F3E5F009F3192234
:1004BB0002053BE493A3F8E493A34003F68001F217
:1004CB0008DFF48029E493A3F85407240CC8C33342
:1004DB00C4540F4420C8834004F456800146F6DF11
:1004EB00E4800B01020408102040809007ABE47EEF
:1004FB00019360BCA3FF543F30E509541FFEE49306
:10050B00A360010ECF54C025E060A840B8E493A3CC
:10051B00FAE493A3F8E493A3C8C582C8CAC583CAF7
:10052B00F0A3C8C582C8CAC583CADFE9DEE780BEAF
:0107B5000043
:10023100C5F0F8A3E028F0C5F0F8E5821582700258
:060241001583E038F022F5
:00000001FF
